:100000000C945D000C9485000C9485000C94850084
:100010000C9485000C9485000C9485000C9485004C
:100020000C9485000C9485000C9485000C9485003C
:100030000C9485000C9485000C9485000C9485002C
:100040000C94CC040C9485000C949A040C947404C5
:100050000C9485000C9485000C9485000C9485000C
:100060000C9485000C9485000000000024002700FB
:100070002A0000000000250028002B0004040404CE
:100080000404040402020202020203030303030342
:10009000010204081020408001020408102001021F
:1000A00004081020000000080002010000030407FB
:1000B0000000000000000000160511241FBECFEF55
:1000C000D8E0DEBFCDBF11E0A0E0B1E0E4EAFDE0A2
:1000D00002C005900D92AE34B107D9F722E0AEE42C
:1000E000B1E001C01D92A231B207E1F710E0CDE509
:1000F000D0E004C02197FE010E94CA06CC35D1078A
:10010000C9F70E9460050C94D0060C940000AF92D1
:10011000BF92CF92DF92EF92FF920F931F93CF93F4
:10012000DF936C017B018B01040F151FEB015E0156
:10013000AE18BF08C017D10759F06991D601ED91EB
:10014000FC910190F081E02DC6010995892B79F78A
:10015000C501DF91CF911F910F91FF90EF90DF903C
:10016000CF90BF90AF900895FC01538D448D252F03
:1001700030E0842F90E0821B930B541710F0CF9641
:10018000089501970895FC01918D828D981761F073
:10019000A28DAE0FBF2FB11D5D968C91928D9F5F8A
:1001A0009F73928F90E008958FEF9FEF0895FC0169
:1001B000918D828D981731F0828DE80FF11D858D1C
:1001C00090E008958FEF9FEF0895FC01918D228DAF
:1001D000892F90E0805C9F4F821B91098F73992734
:1001E00008958DE591E00E94E50021E0892B09F456
:1001F00020E0822F089580E090E0892B29F00E9472
:10020000F10081110C9400000895FC01A48DA80F49
:10021000B92FB11DA35ABF4F2C91848D90E0019648
:100220008F739927848FA689B7892C93A089B18968
:100230008C91837080648C93938D848D981306C009
:100240000288F389E02D80818F7D80830895EF926D
:10025000FF920F931F93CF93DF93EC0181E0888F80
:100260009B8D8C8D98131AC0E889F989808185FF50
:1002700015C09FB7F894EE89FF896083E889F989F2
:1002800080818370806480839FBF81E090E0DF91F4
:10029000CF911F910F91FF90EF900895F62E0B8D47
:1002A00010E00F5F1F4F0F731127E02E8C8D8E1102
:1002B0000CC00FB607FCFACFE889F989808185FF69
:1002C000F5CFCE010E940501F1CFEB8DEC0FFD2F94
:1002D000F11DE35AFF4FF0829FB7F8940B8FEA8924
:1002E000FB8980818062CFCFCF93DF93EC01888D33
:1002F0008823B9F0AA89BB89E889F9898C9185FDA1
:1003000003C0808186FD0DC00FB607FCF7CF8C912E
:1003100085FFF2CF808185FFEDCFCE010E940501E0
:10032000E9CFDF91CF91089590E0FC01EC55FF4FAC
:100330002491FC01E057FF4F3491FC01E458FF4F3A
:10034000E491EE23C9F0222339F0233001F1A8F41F
:10035000213019F1223029F1F0E0EE0FFF1FEE58A5
:10036000FF4FA591B4918FB7F894EC91611126C01D
:1003700030953E233C938FBF08952730A9F0283055
:10038000C9F0243049F7809180008F7D03C08091AF
:1003900080008F7780938000DFCF84B58F7784BD16
:1003A000DBCF84B58F7DFBCF8091B0008F778093BA
:1003B000B000D2CF8091B0008F7DF9CF3E2BDACF45
:1003C000CF93DF9390E0FC01E057FF4F24918458D6
:1003D0009F4FFC0184918823D1F090E0880F991FF2
:1003E000FC01E859FF4FA591B491FC01EE58FF4F75
:1003F000C591D49161110EC09FB7F8948C91E22FF2
:10040000E0958E238C932881E223E8839FBFDF91C0
:10041000CF9108958FB7F894EC91E22BEC938FBFB6
:10042000F6CF8E3008F08E508770806480937C0009
:1004300080917A00806480937A0080917A0086FDB2
:10044000FCCF809178009091790008953FB7F8949F
:100450008091530190915401A0915501B0915601A2
:1004600026B5A89B05C02F3F19F00196A11DB11D0F
:100470003FBFBA2FA92F982F8827BC01CD01620F4B
:10048000711D811D911D42E0660F771F881F991F06
:100490004A95D1F708958F929F92AF92BF92CF92D3
:1004A000DF92EF92FF924B015C010E9426026B01EA
:1004B0007C010E9426026C197D098E099F09683E05
:1004C000734081059105A8F321E0821A9108A108E3
:1004D000B10888EEC80E83E0D81EE11CF11C81141F
:1004E0009104A104B10429F7FF90EF90DF90CF9021
:1004F000BF90AF909F908F900895089590E080E016
:100500000895CF93DF93EC0160E08E810E94940107
:1005100061E08E810E94940160E08E810E949401CE
:100520008BE891E00197F1F7DF91CF910895CF9299
:10053000DF92EF92FF920F931F93CF93DF936C01A3
:100540007C0187E0E80EF11CD0E0C0E0062F10E04F
:10055000B8010C2E02C0759567950A94E2F7617098
:10056000F70181917F010E9494012196C430D10549
:1005700079F7C601DF91CF911F910F91FF90EF9016
:10058000DF90CF900C948102CF92DF92EF92FF9296
:100590000F931F93CF93DF93EC01F62E642F8C8182
:1005A0000E9494018D818F3F19F060E00E949401B8
:1005B0000F2D10E08F8584FF25C06E0187E0C80EE7
:1005C000D11CF12CE12CB8010E2C02C07595679559
:1005D0000A94E2F76170F60181916F010E94940123
:1005E000FFEFEF1AFF0A88E0E816F10461F7CE0189
:1005F000DF91CF911F910F91FF90EF90DF90CF90FF
:100600000C948102B80184E0759567958A95E1F7AD
:10061000CE010E9497026F2DCE01DF91CF911F91E5
:100620000F91FF90EF90DF90CF900C94970240E0F5
:10063000682F8AEF91E00C94C402CF93DF9382304D
:1006400029F49091090298609093090280930D0219
:1006500010920E0280E480930F0280E180931002DA
:1006600080E58093110261E08091FE010E94E0012B
:100670008091FF018F3F19F061E00E94E00161E08D
:10068000809100020E94E001CAEFD1E09E012A5F42
:1006900031408091090284FD0BC084E090E02196F6
:1006A0002817390744F461E08E810E94E001EECF03
:1006B00088E090E0F4CF8BE39DE00197F1F760E0F4
:1006C0008091FE010E94940160E0809100020E94EE
:1006D00094018091FF018F3F19F060E00E94940126
:1006E0008091090284FD39C063E08AEF91E00E94A5
:1006F0009702CBE4D6E4CE010197F1F763E08AEFED
:1007000091E00E9497022197F1F763E08AEF91E070
:100710000E94970283E592E00197F1F762E08AEF89
:1007200091E00E9497028091090280620E94170363
:1007300084E080930A028CE00E94170381E00E940B
:1007400017038BE39FE10197F1F782E080930B029F
:1007500086E0DF91CF910C94170380620E9417030B
:100760008BE496E40197F1F78091090280620E9480
:10077000170383E592E00197F1F780910902806207
:100780000E941703D0CF90910D02691710F06FEF00
:10079000690FE62FF0E0E650FE4F9489890F8068DC
:1007A0000C94170341E00E94C40281E090E0089598
:1007B000FB0101900020E9F73197AF01461B570B71
:1007C000DC01ED91FC910280F381E02D09944F92C0
:1007D0005F926F927F928F929F92AF92BF92CF92D1
:1007E000DF92EF92FF920F931F93CF93DF93CDB7DA
:1007F000DEB7A1970FB6F894DEBF0FBECDBF8C0158
:100800006B01770FEE08FF08F7FE49C0DC01ED91A0
:10081000FC910190F081E02D6DE209955C012227A9
:100820003327A9012C193D094E095F0919A2FE01C0
:10083000B1967F019AE0492E512C612C712CCA018E
:10084000B901A30192010E94A806605DD7016E93D1
:100850007D01211531054105510589F790E080E0C2
:10086000109721F0BD01C8010E94D8038A0D9B1D7D
:10087000A1960FB6F894DEBF0FBECDBFDF91CF912A
:100880001F910F91FF90EF90DF90CF90BF90AF90AE
:100890009F908F907F906F905F904F900895A701E9
:1008A000960119A2FE01B1967F018AE0882E912C53
:1008B000A12CB12CCA01B901A50194010E94A8067E
:1008C000605DD7016E937D0121153105410551050C
:1008D00089F790E080E0109759F2BD01C8010E94AD
:1008E000D803C6CF0C94D8031F920F920FB60F9265
:1008F00011242F933F934F935F936F937F938F9325
:100900009F93AF93BF93EF93FF938DE591E00E9488
:100910000501FF91EF91BF91AF919F918F917F91D1
:100920006F915F914F913F912F910F900FBE0F905C
:100930001F9018951F920F920FB60F9211242F93AC
:100940008F939F93EF93FF93E0916D01F0916E0170
:100950008081E0917301F091740182FD1BC0908150
:10096000809176018F5F8F7320917701821741F01C
:10097000E0917601F0E0E35AFE4F958F8093760187
:10098000FF91EF919F918F912F910F900FBE0F903C
:100990001F9018958081F4CF1F920F920FB60F927F
:1009A00011242F933F938F939F93AF93BF93809185
:1009B0004F0190915001A0915101B091520130919D
:1009C0004E0123E0230F2D3758F50196A11DB11DCF
:1009D00020934E0180934F0190935001A0935101B9
:1009E000B09352018091530190915401A09155010F
:1009F000B09156010196A11DB11D809353019093B2
:100A00005401A0935501B0935601BF91AF919F91AE
:100A10008F913F912F910F900FBE0F901F901895BF
:100A200026E8230F0296A11DB11DD2CFEDE5F1E01E
:100A30001382128288EE93E0A0E0B0E08483958375
:100A4000A683B78384E091E09183808385EC90E076
:100A50009587848784EC90E09787868780EC90E088
:100A6000918B808B81EC90E0938B828B82EC90E079
:100A7000958B848B86EC90E0978B868B118E128EF3
:100A8000138E148EEAEFF1E01382128286E191E078
:100A90009183808382E084838FEF858383E08683E4
:100AA00084E0878385E0808786E0818787E082878E
:100AB0001386148615861686178681E00C941D030E
:100AC000789484B5826084BD84B5816084BD85B529
:100AD000826085BD85B5816085BD80916E00816035
:100AE00080936E00109281008091810082608093DB
:100AF00081008091810081608093810080918000DD
:100B00008160809380008091B10084608093B10007
:100B10008091B00081608093B00080917A00846001
:100B200080937A0080917A00826080937A0080912D
:100B30007A00816080937A0080917A008068809347
:100B40007A001092C10060E08EE00E94E00160E057
:100B50008FE00E94E00160E080E10E94E00182E01D
:100B60000E941D0360E080E00E94C3036EE171E01B
:100B70008AEF91E00E94720461E080E00E94C3036A
:100B80006EE271E08AEF91E00E94720460ED77E01E
:100B900080E090E00E944B02E0916D01F0916E01C7
:100BA00082E08083E0916901F0916A011082E09116
:100BB0006B01F0916C018FEC808310927501E091D4
:100BC0007101F091720186E08083E0916F01F091F4
:100BD0007001808180618083E0916F01F0917001EC
:100BE000808188608083E0916F01F0917001808145
:100BF00080688083E0916F01F091700180818F7D2A
:100C0000808381E00E9417038BE39FE10197F1F756
:100C1000C0E0D0E08EE00E94110290935C018093CE
:100C20005B018FE00E94110290935A018093590159
:100C300080E10E941102909358018093570160E077
:100C400080E00E94C3036EE371E08AEF91E00E94AE
:100C5000720460915B0170915C018AEF91E00E94E7
:100C6000E7036CE271E08AEF91E00E94720461E0B8
:100C700080E00E94C30362E471E08AEF91E00E9489
:100C800072046091590170915A018AEF91E00E94BB
:100C9000E7036CE271E08AEF91E00E94720460E089
:100CA0008CE00E94C30366E471E08AEF91E00E9449
:100CB000720460915701709158018AEF91E00E948F
:100CC000E7036CE271E08AEF91E00E9472046091A8
:100CD0005B0170915C018DE591E00E94E7036CE29D
:100CE00071E08DE591E00E9472046091590170916C
:100CF0005A018DE591E00E94E7036CE271E08DE519
:100D000091E00E94720460915701709158018DE545
:100D100091E00E94E7036CE271E08DE591E00E94B2
:100D200072046AE471E08DE591E00E94D80364EFFB
:100D300071E080E090E00E944B02209709F46ACFB6
:100D40000E94F100882309F465CF0E94000062CF61
:100D5000A1E21A2EAA1BBB1BFD010DC0AA1FBB1FBF
:100D6000EE1FFF1FA217B307E407F50720F0A21B31
:100D7000B30BE40BF50B661F771F881F991F1A949E
:100D800069F760957095809590959B01AC01BD01C8
:100D9000CF010895EE0FFF1F0590F491E02D099407
:040DA000F894FFCFF5
:100DA4000000000027018700B4007401E500C300BF
:100DB400D70000000000D20387007E027D022020BD
:100DC400454E45524759204D4554455220005448FC
:100DD40045465420444554454354494F4E005620FB
:0E0DE4003A0044493A004C493A000D0A00001A
:00000001FF
